{
  "contractName": "SmartParking",
  "abi": [
    {
      "inputs": [],
      "payable": false,
      "stateMutability": "nonpayable",
      "type": "constructor"
    },
    {
      "anonymous": false,
      "inputs": [
        {
          "indexed": false,
          "internalType": "uint256",
          "name": "_id",
          "type": "uint256"
        }
      ],
      "name": "FishAdded",
      "type": "event"
    },
    {
      "anonymous": false,
      "inputs": [
        {
          "indexed": false,
          "internalType": "uint256",
          "name": "_id",
          "type": "uint256"
        }
      ],
      "name": "FishDeleted",
      "type": "event"
    },
    {
      "anonymous": false,
      "inputs": [
        {
          "indexed": false,
          "internalType": "uint256",
          "name": "_id",
          "type": "uint256"
        }
      ],
      "name": "FishEdited",
      "type": "event"
    },
    {
      "anonymous": false,
      "inputs": [
        {
          "indexed": false,
          "internalType": "uint256",
          "name": "_id",
          "type": "uint256"
        }
      ],
      "name": "UserAdded",
      "type": "event"
    },
    {
      "anonymous": false,
      "inputs": [
        {
          "indexed": false,
          "internalType": "uint256",
          "name": "_id",
          "type": "uint256"
        }
      ],
      "name": "UserDeleted",
      "type": "event"
    },
    {
      "anonymous": false,
      "inputs": [
        {
          "indexed": false,
          "internalType": "uint256",
          "name": "_id",
          "type": "uint256"
        }
      ],
      "name": "UserEdited",
      "type": "event"
    },
    {
      "constant": true,
      "inputs": [],
      "name": "UserCount",
      "outputs": [
        {
          "internalType": "uint256",
          "name": "",
          "type": "uint256"
        }
      ],
      "payable": false,
      "stateMutability": "view",
      "type": "function"
    },
    {
      "constant": true,
      "inputs": [],
      "name": "fishCount",
      "outputs": [
        {
          "internalType": "uint256",
          "name": "",
          "type": "uint256"
        }
      ],
      "payable": false,
      "stateMutability": "view",
      "type": "function"
    },
    {
      "constant": true,
      "inputs": [
        {
          "internalType": "uint256",
          "name": "",
          "type": "uint256"
        }
      ],
      "name": "fishes",
      "outputs": [
        {
          "internalType": "uint256",
          "name": "id",
          "type": "uint256"
        },
        {
          "internalType": "string",
          "name": "type_poisson",
          "type": "string"
        },
        {
          "internalType": "string",
          "name": "image_url",
          "type": "string"
        },
        {
          "internalType": "string",
          "name": "localisation",
          "type": "string"
        }
      ],
      "payable": false,
      "stateMutability": "view",
      "type": "function"
    },
    {
      "constant": true,
      "inputs": [
        {
          "internalType": "uint256",
          "name": "",
          "type": "uint256"
        }
      ],
      "name": "users",
      "outputs": [
        {
          "internalType": "uint256",
          "name": "id",
          "type": "uint256"
        },
        {
          "internalType": "string",
          "name": "name",
          "type": "string"
        },
        {
          "internalType": "string",
          "name": "password",
          "type": "string"
        },
        {
          "internalType": "string",
          "name": "phone",
          "type": "string"
        }
      ],
      "payable": false,
      "stateMutability": "view",
      "type": "function"
    },
    {
      "constant": true,
      "inputs": [],
      "name": "getUserCount",
      "outputs": [
        {
          "internalType": "uint256",
          "name": "",
          "type": "uint256"
        }
      ],
      "payable": false,
      "stateMutability": "view",
      "type": "function"
    },
    {
      "constant": false,
      "inputs": [
        {
          "internalType": "string",
          "name": "_name",
          "type": "string"
        },
        {
          "internalType": "string",
          "name": "_password",
          "type": "string"
        },
        {
          "internalType": "string",
          "name": "_phone",
          "type": "string"
        }
      ],
      "name": "addUser",
      "outputs": [],
      "payable": false,
      "stateMutability": "nonpayable",
      "type": "function"
    },
    {
      "constant": false,
      "inputs": [
        {
          "internalType": "uint256",
          "name": "_id",
          "type": "uint256"
        }
      ],
      "name": "deleteUser",
      "outputs": [],
      "payable": false,
      "stateMutability": "nonpayable",
      "type": "function"
    },
    {
      "constant": false,
      "inputs": [
        {
          "internalType": "uint256",
          "name": "_id",
          "type": "uint256"
        },
        {
          "internalType": "string",
          "name": "_name",
          "type": "string"
        },
        {
          "internalType": "string",
          "name": "_password",
          "type": "string"
        },
        {
          "internalType": "string",
          "name": "_phone",
          "type": "string"
        }
      ],
      "name": "editUser",
      "outputs": [],
      "payable": false,
      "stateMutability": "nonpayable",
      "type": "function"
    },
    {
      "constant": true,
      "inputs": [],
      "name": "getFishCount",
      "outputs": [
        {
          "internalType": "uint256",
          "name": "",
          "type": "uint256"
        }
      ],
      "payable": false,
      "stateMutability": "view",
      "type": "function"
    },
    {
      "constant": false,
      "inputs": [
        {
          "internalType": "string",
          "name": "_type_poisson",
          "type": "string"
        },
        {
          "internalType": "string",
          "name": "_image_url",
          "type": "string"
        },
        {
          "internalType": "string",
          "name": "_localisation",
          "type": "string"
        }
      ],
      "name": "addFish",
      "outputs": [],
      "payable": false,
      "stateMutability": "nonpayable",
      "type": "function"
    },
    {
      "constant": false,
      "inputs": [
        {
          "internalType": "uint256",
          "name": "_id",
          "type": "uint256"
        }
      ],
      "name": "deleteFish",
      "outputs": [],
      "payable": false,
      "stateMutability": "nonpayable",
      "type": "function"
    },
    {
      "constant": false,
      "inputs": [
        {
          "internalType": "uint256",
          "name": "_id",
          "type": "uint256"
        },
        {
          "internalType": "string",
          "name": "_type_poisson",
          "type": "string"
        },
        {
          "internalType": "string",
          "name": "_image_url",
          "type": "string"
        },
        {
          "internalType": "string",
          "name": "_localisation",
          "type": "string"
        }
      ],
      "name": "editFish",
      "outputs": [],
      "payable": false,
      "stateMutability": "nonpayable",
      "type": "function"
    }
  ],
  "bytecode": "0x608060405234801561001057600080fd5b50600080819055506000600181905550610fca8061002f6000396000f3fe608060405234801561001057600080fd5b50600436106100d1576000357c010000000000000000000000000000000000000000000000000000000090048063618ee6151161008e578063618ee6151461019757806368312b30146101b357806395c5fed4146101d1578063b5cb15f7146101ed578063b68d6f361461020b578063c297e4ac1461023e576100d1565b806315931724146100d6578063245636b2146100f4578063365b98b21461011057806338f148451461014357806349703bfb1461015f57806357995f841461017b575b600080fd5b6100de61025c565b6040516100eb9190610e29565b60405180910390f35b61010e60048036036101099190810190610c76565b610262565b005b61012a60048036036101259190810190610d0d565b61034e565b60405161013a9493929190610e44565b60405180910390f35b61015d60048036036101589190810190610d0d565b610546565b005b61017960048036036101749190810190610d36565b6105e0565b005b61019560048036036101909190810190610d36565b6106b5565b005b6101b160048036036101ac9190810190610d0d565b61078a565b005b6101bb610825565b6040516101c89190610e29565b60405180910390f35b6101eb60048036036101e69190810190610c76565b61082f565b005b6101f5610919565b6040516102029190610e29565b60405180910390f35b61022560048036036102209190810190610d0d565b610922565b6040516102359493929190610e44565b60405180910390f35b610246610b1a565b6040516102539190610e29565b60405180910390f35b60005481565b60405180608001604052806001548152602001848152602001838152602001828152506003600060015481526020019081526020016000206000820151816000015560208201518160010190805190602001906102c0929190610b20565b5060408201518160020190805190602001906102dd929190610b20565b5060608201518160030190805190602001906102fa929190610b20565b509050507f7a8d6c6689917854d4881a17583b5effc916ee875ddaeb2e33136b3e51a25b5060015460405161032f9190610e29565b60405180910390a1600160008154809291906001019190505550505050565b6002602052806000526040600020600091509050806000015490806001018054600181600116156101000203166002900480601f0160208091040260200160405190810160405280929190818152602001828054600181600116156101000203166002900480156104005780601f106103d557610100808354040283529160200191610400565b820191906000526020600020905b8154815290600101906020018083116103e357829003601f168201915b505050505090806002018054600181600116156101000203166002900480601f01602080910402602001604051908101604052809291908181526020018280546001816001161561010002031660029004801561049e5780601f106104735761010080835404028352916020019161049e565b820191906000526020600020905b81548152906001019060200180831161048157829003601f168201915b505050505090806003018054600181600116156101000203166002900480601f01602080910402602001604051908101604052809291908181526020018280546001816001161561010002031660029004801561053c5780601f106105115761010080835404028352916020019161053c565b820191906000526020600020905b81548152906001019060200180831161051f57829003601f168201915b5050505050905084565b600260008281526020019081526020016000206000808201600090556001820160006105729190610ba0565b6002820160006105829190610ba0565b6003820160006105929190610ba0565b50506000808154809291906001900391905055507f42a77abd0397855f875460bb511f41935bfa5f396b556d95717d8c2e08334aae816040516105d59190610e29565b60405180910390a150565b6040518060800160405280858152602001848152602001838152602001828152506002600086815260200190815260200160002060008201518160000155602082015181600101908051906020019061063a929190610b20565b506040820151816002019080519060200190610657929190610b20565b506060820151816003019080519060200190610674929190610b20565b509050507f29c9c79f57240563ee819e941228a194b90bb9ed36d4ee0b610e897d8712f5ae846040516106a79190610e29565b60405180910390a150505050565b6040518060800160405280858152602001848152602001838152602001828152506003600086815260200190815260200160002060008201518160000155602082015181600101908051906020019061070f929190610b20565b50604082015181600201908051906020019061072c929190610b20565b506060820151816003019080519060200190610749929190610b20565b509050507f6b7cfd5d376874d972cfff444c45e24ae37a05944262d91610c9ef180f43d0798460405161077c9190610e29565b60405180910390a150505050565b600360008281526020019081526020016000206000808201600090556001820160006107b69190610ba0565b6002820160006107c69190610ba0565b6003820160006107d69190610ba0565b5050600160008154809291906001900391905055507f7cadb9dfa07cf91bef25be808866247c43ca1d05d9c51b6c5f3326382d77afff8160405161081a9190610e29565b60405180910390a150565b6000600154905090565b6040518060800160405280600054815260200184815260200183815260200182815250600260008054815260200190815260200160002060008201518160000155602082015181600101908051906020019061088c929190610b20565b5060408201518160020190805190602001906108a9929190610b20565b5060608201518160030190805190602001906108c6929190610b20565b509050507f27412bb19840b11057dee7c7019767312555c4497d8d4c2383fa6b7791bf014b6000546040516108fb9190610e29565b60405180910390a16000808154809291906001019190505550505050565b60008054905090565b6003602052806000526040600020600091509050806000015490806001018054600181600116156101000203166002900480601f0160208091040260200160405190810160405280929190818152602001828054600181600116156101000203166002900480156109d45780601f106109a9576101008083540402835291602001916109d4565b820191906000526020600020905b8154815290600101906020018083116109b757829003601f168201915b505050505090806002018054600181600116156101000203166002900480601f016020809104026020016040519081016040528092919081815260200182805460018160011615610100020316600290048015610a725780601f10610a4757610100808354040283529160200191610a72565b820191906000526020600020905b815481529060010190602001808311610a5557829003601f168201915b505050505090806003018054600181600116156101000203166002900480601f016020809104026020016040519081016040528092919081815260200182805460018160011615610100020316600290048015610b105780601f10610ae557610100808354040283529160200191610b10565b820191906000526020600020905b815481529060010190602001808311610af357829003601f168201915b5050505050905084565b60015481565b828054600181600116156101000203166002900490600052602060002090601f016020900481019282601f10610b6157805160ff1916838001178555610b8f565b82800160010185558215610b8f579182015b82811115610b8e578251825591602001919060010190610b73565b5b509050610b9c9190610be8565b5090565b50805460018160011615610100020316600290046000825580601f10610bc65750610be5565b601f016020900490600052602060002090810190610be49190610be8565b5b50565b610c0a91905b80821115610c06576000816000905550600101610bee565b5090565b90565b600082601f830112610c1e57600080fd5b8135610c31610c2c82610ecb565b610e9e565b91508082526020830160208301858383011115610c4d57600080fd5b610c58838284610f1d565b50505092915050565b600081359050610c7081610f70565b92915050565b600080600060608486031215610c8b57600080fd5b600084013567ffffffffffffffff811115610ca557600080fd5b610cb186828701610c0d565b935050602084013567ffffffffffffffff811115610cce57600080fd5b610cda86828701610c0d565b925050604084013567ffffffffffffffff811115610cf757600080fd5b610d0386828701610c0d565b9150509250925092565b600060208284031215610d1f57600080fd5b6000610d2d84828501610c61565b91505092915050565b60008060008060808587031215610d4c57600080fd5b6000610d5a87828801610c61565b945050602085013567ffffffffffffffff811115610d7757600080fd5b610d8387828801610c0d565b935050604085013567ffffffffffffffff811115610da057600080fd5b610dac87828801610c0d565b925050606085013567ffffffffffffffff811115610dc957600080fd5b610dd587828801610c0d565b91505092959194509250565b6000610dec82610ef7565b610df68185610f02565b9350610e06818560208601610f2c565b610e0f81610f5f565b840191505092915050565b610e2381610f13565b82525050565b6000602082019050610e3e6000830184610e1a565b92915050565b6000608082019050610e596000830187610e1a565b8181036020830152610e6b8186610de1565b90508181036040830152610e7f8185610de1565b90508181036060830152610e938184610de1565b905095945050505050565b6000604051905081810181811067ffffffffffffffff82111715610ec157600080fd5b8060405250919050565b600067ffffffffffffffff821115610ee257600080fd5b601f19601f8301169050602081019050919050565b600081519050919050565b600082825260208201905092915050565b6000819050919050565b82818337600083830152505050565b60005b83811015610f4a578082015181840152602081019050610f2f565b83811115610f59576000848401525b50505050565b6000601f19601f8301169050919050565b610f7981610f13565b8114610f8457600080fd5b5056fea365627a7a723158206758e12f6a7370d6310203bdcfcacc36bdea0f9c7b427173542a2f3bc9266fbc6c6578706572696d656e74616cf564736f6c63430005100040",
  "source": "// SPDX-License-Identifier: GPL-3.0\npragma experimental ABIEncoderV2;\n\ncontract SmartParking {\n    uint256 public UserCount;\n    uint256 public fishCount; // Updated from fishCount\n    struct User {\n        uint256 id;\n        string name;\n        string password;\n        string phone;\n    }\n\n    struct Fish { // Updated from Fish\n        uint256 id;\n        string type_poisson; // Updated from brand\n        string image_url; // Updated from lisencePlate\n        string localisation; // Updated from model\n    }\n\n    mapping(uint256 => User) public users;\n    mapping(uint256 => Fish) public fishes; // Updated from fishs\n\n    constructor() public {\n        UserCount = 0;\n        fishCount = 0;\n    }\n\n    event UserAdded(uint256 _id);\n    event UserDeleted(uint256 _id);\n    event UserEdited(uint256 _id);\n    event FishAdded(uint256 _id); // Updated from FishAdded\n    event FishDeleted(uint256 _id); // Updated from FishDeleted\n    event FishEdited(uint256 _id); // Updated from FishEdited\n\n    function getUserCount() public view returns (uint256) {\n        return UserCount;\n    }\n\n    function addUser(\n        string memory _name,\n        string memory _password,\n        string memory _phone\n    ) public {\n        users[UserCount] = User(\n            UserCount,\n            _name,\n            _password,\n            _phone\n        );\n        emit UserAdded(UserCount);\n        UserCount++;\n    }\n\n    function deleteUser(uint256 _id) public {\n        delete users[_id];\n        UserCount--;\n        emit UserDeleted(_id);\n    }\n\n    function editUser(\n        uint256 _id,\n        string memory _name,\n        string memory _password,\n        string memory _phone\n    ) public {\n        users[_id] = User(_id, _name, _password, _phone);\n        emit UserEdited(_id);\n    }\n\n    function getFishCount() public view returns (uint256) { // Updated from getFishCount\n        return fishCount;\n    }\n\n    function addFish(\n        string memory _type_poisson, // Updated from _brand\n        string memory _image_url, // Updated from _lisencePlate\n        string memory _localisation // Updated from _model\n    ) public {\n        fishes[fishCount] = Fish(\n            fishCount,\n            _type_poisson,\n            _image_url,\n            _localisation\n        );\n        emit FishAdded(fishCount); // Updated from FishAdded\n        fishCount++;\n    }\n\n    function deleteFish(uint256 _id) public { // Updated from deleteFish\n        delete fishes[_id];\n        fishCount--;\n        emit FishDeleted(_id); // Updated from FishDeleted\n    }\n\n    function editFish(\n        uint256 _id,\n        string memory _type_poisson, // Updated from _brand\n        string memory _image_url, // Updated from _lisencePlate\n        string memory _localisation // Updated from _model\n    ) public {\n        fishes[_id] = Fish(_id, _type_poisson, _image_url, _localisation);\n        emit FishEdited(_id); // Updated from FishEdited\n    }\n}\n",
  "sourcePath": "C:\\Block chain\\Mini_projet\\vehiculefinale-main\\contracts\\SmartParking.sol",
  "compiler": {
    "name": "solc",
    "version": "0.5.16+commit.9c3226ce.Emscripten.clang"
  },
  "schemaVersion": "3.4.16",
  "updatedAt": "2024-12-08T13:57:26.526Z",
  "networkType": "ethereum",
  "devdoc": {
    "methods": {}
  },
  "userdoc": {
    "methods": {}
  }
}